{
  "_format": "hh-sol-artifact-1",
  "contractName": "MyEpicNFT",
  "sourceName": "contracts/MyEpicNFT.sol",
  "abi": [
    {
      "inputs": [],
      "stateMutability": "nonpayable",
      "type": "constructor"
    },
    {
      "anonymous": false,
      "inputs": [
        {
          "indexed": true,
          "internalType": "address",
          "name": "owner",
          "type": "address"
        },
        {
          "indexed": true,
          "internalType": "address",
          "name": "approved",
          "type": "address"
        },
        {
          "indexed": true,
          "internalType": "uint256",
          "name": "tokenId",
          "type": "uint256"
        }
      ],
      "name": "Approval",
      "type": "event"
    },
    {
      "anonymous": false,
      "inputs": [
        {
          "indexed": true,
          "internalType": "address",
          "name": "owner",
          "type": "address"
        },
        {
          "indexed": true,
          "internalType": "address",
          "name": "operator",
          "type": "address"
        },
        {
          "indexed": false,
          "internalType": "bool",
          "name": "approved",
          "type": "bool"
        }
      ],
      "name": "ApprovalForAll",
      "type": "event"
    },
    {
      "anonymous": false,
      "inputs": [
        {
          "indexed": false,
          "internalType": "address",
          "name": "sender",
          "type": "address"
        },
        {
          "indexed": false,
          "internalType": "uint256",
          "name": "tokenId",
          "type": "uint256"
        }
      ],
      "name": "NewEpicNFTMinted",
      "type": "event"
    },
    {
      "anonymous": false,
      "inputs": [
        {
          "indexed": true,
          "internalType": "address",
          "name": "from",
          "type": "address"
        },
        {
          "indexed": true,
          "internalType": "address",
          "name": "to",
          "type": "address"
        },
        {
          "indexed": true,
          "internalType": "uint256",
          "name": "tokenId",
          "type": "uint256"
        }
      ],
      "name": "Transfer",
      "type": "event"
    },
    {
      "inputs": [
        {
          "internalType": "address",
          "name": "to",
          "type": "address"
        },
        {
          "internalType": "uint256",
          "name": "tokenId",
          "type": "uint256"
        }
      ],
      "name": "approve",
      "outputs": [],
      "stateMutability": "nonpayable",
      "type": "function"
    },
    {
      "inputs": [
        {
          "internalType": "address",
          "name": "owner",
          "type": "address"
        }
      ],
      "name": "balanceOf",
      "outputs": [
        {
          "internalType": "uint256",
          "name": "",
          "type": "uint256"
        }
      ],
      "stateMutability": "view",
      "type": "function"
    },
    {
      "inputs": [
        {
          "internalType": "uint256",
          "name": "tokenId",
          "type": "uint256"
        }
      ],
      "name": "getApproved",
      "outputs": [
        {
          "internalType": "address",
          "name": "",
          "type": "address"
        }
      ],
      "stateMutability": "view",
      "type": "function"
    },
    {
      "inputs": [
        {
          "internalType": "address",
          "name": "owner",
          "type": "address"
        },
        {
          "internalType": "address",
          "name": "operator",
          "type": "address"
        }
      ],
      "name": "isApprovedForAll",
      "outputs": [
        {
          "internalType": "bool",
          "name": "",
          "type": "bool"
        }
      ],
      "stateMutability": "view",
      "type": "function"
    },
    {
      "inputs": [],
      "name": "makeAnEpicNFT",
      "outputs": [],
      "stateMutability": "nonpayable",
      "type": "function"
    },
    {
      "inputs": [],
      "name": "name",
      "outputs": [
        {
          "internalType": "string",
          "name": "",
          "type": "string"
        }
      ],
      "stateMutability": "view",
      "type": "function"
    },
    {
      "inputs": [
        {
          "internalType": "uint256",
          "name": "tokenId",
          "type": "uint256"
        }
      ],
      "name": "ownerOf",
      "outputs": [
        {
          "internalType": "address",
          "name": "",
          "type": "address"
        }
      ],
      "stateMutability": "view",
      "type": "function"
    },
    {
      "inputs": [
        {
          "internalType": "uint256",
          "name": "tokenId",
          "type": "uint256"
        }
      ],
      "name": "pickRandomColor",
      "outputs": [
        {
          "internalType": "string",
          "name": "",
          "type": "string"
        }
      ],
      "stateMutability": "view",
      "type": "function"
    },
    {
      "inputs": [
        {
          "internalType": "uint256",
          "name": "tokenId",
          "type": "uint256"
        }
      ],
      "name": "pickRandomFirstWord",
      "outputs": [
        {
          "internalType": "string",
          "name": "",
          "type": "string"
        }
      ],
      "stateMutability": "view",
      "type": "function"
    },
    {
      "inputs": [
        {
          "internalType": "uint256",
          "name": "tokenId",
          "type": "uint256"
        }
      ],
      "name": "pickRandomSecondWord",
      "outputs": [
        {
          "internalType": "string",
          "name": "",
          "type": "string"
        }
      ],
      "stateMutability": "view",
      "type": "function"
    },
    {
      "inputs": [
        {
          "internalType": "uint256",
          "name": "tokenId",
          "type": "uint256"
        }
      ],
      "name": "pickRandomThirdWord",
      "outputs": [
        {
          "internalType": "string",
          "name": "",
          "type": "string"
        }
      ],
      "stateMutability": "view",
      "type": "function"
    },
    {
      "inputs": [
        {
          "internalType": "address",
          "name": "from",
          "type": "address"
        },
        {
          "internalType": "address",
          "name": "to",
          "type": "address"
        },
        {
          "internalType": "uint256",
          "name": "tokenId",
          "type": "uint256"
        }
      ],
      "name": "safeTransferFrom",
      "outputs": [],
      "stateMutability": "nonpayable",
      "type": "function"
    },
    {
      "inputs": [
        {
          "internalType": "address",
          "name": "from",
          "type": "address"
        },
        {
          "internalType": "address",
          "name": "to",
          "type": "address"
        },
        {
          "internalType": "uint256",
          "name": "tokenId",
          "type": "uint256"
        },
        {
          "internalType": "bytes",
          "name": "_data",
          "type": "bytes"
        }
      ],
      "name": "safeTransferFrom",
      "outputs": [],
      "stateMutability": "nonpayable",
      "type": "function"
    },
    {
      "inputs": [
        {
          "internalType": "address",
          "name": "operator",
          "type": "address"
        },
        {
          "internalType": "bool",
          "name": "approved",
          "type": "bool"
        }
      ],
      "name": "setApprovalForAll",
      "outputs": [],
      "stateMutability": "nonpayable",
      "type": "function"
    },
    {
      "inputs": [
        {
          "internalType": "bytes4",
          "name": "interfaceId",
          "type": "bytes4"
        }
      ],
      "name": "supportsInterface",
      "outputs": [
        {
          "internalType": "bool",
          "name": "",
          "type": "bool"
        }
      ],
      "stateMutability": "view",
      "type": "function"
    },
    {
      "inputs": [],
      "name": "symbol",
      "outputs": [
        {
          "internalType": "string",
          "name": "",
          "type": "string"
        }
      ],
      "stateMutability": "view",
      "type": "function"
    },
    {
      "inputs": [
        {
          "internalType": "uint256",
          "name": "tokenId",
          "type": "uint256"
        }
      ],
      "name": "tokenURI",
      "outputs": [
        {
          "internalType": "string",
          "name": "",
          "type": "string"
        }
      ],
      "stateMutability": "view",
      "type": "function"
    },
    {
      "inputs": [
        {
          "internalType": "address",
          "name": "from",
          "type": "address"
        },
        {
          "internalType": "address",
          "name": "to",
          "type": "address"
        },
        {
          "internalType": "uint256",
          "name": "tokenId",
          "type": "uint256"
        }
      ],
      "name": "transferFrom",
      "outputs": [],
      "stateMutability": "nonpayable",
      "type": "function"
    }
  ],
  "bytecode": "0x608060405260405180610100016040528060d3815260200162005a1160d39139600890805190602001906200003692919062001a9f565b5060405180608001604052806056815260200162005ae460569139600990805190602001906200006892919062001a9f565b506040518061042001604052806040518060400160405280600881526020017f436861726d696e6700000000000000000000000000000000000000000000000081525081526020016040518060400160405280600781526020017f506572666563740000000000000000000000000000000000000000000000000081525081526020016040518060400160405280600581526020017f4c616e6b7900000000000000000000000000000000000000000000000000000081525081526020016040518060400160405280600681526020017f47656e746c65000000000000000000000000000000000000000000000000000081525081526020016040518060400160405280600781526020017f5a65616c6f75730000000000000000000000000000000000000000000000000081525081526020016040518060400160405280600681526020017f467269736b79000000000000000000000000000000000000000000000000000081525081526020016040518060400160405280600881526020017f4172726f67616e7400000000000000000000000000000000000000000000000081525081526020016040518060400160405280600681526020017f436c756d7379000000000000000000000000000000000000000000000000000081525081526020016040518060400160405280600581526020017f576965726400000000000000000000000000000000000000000000000000000081525081526020016040518060400160405280600681526020017f4c6f6e656c79000000000000000000000000000000000000000000000000000081525081526020016040518060400160405280600881526020017f41626e6f726d616c00000000000000000000000000000000000000000000000081525081526020016040518060400160405280600481526020017f42616c640000000000000000000000000000000000000000000000000000000081525081526020016040518060400160405280600881526020017f417274697374696300000000000000000000000000000000000000000000000081525081526020016040518060400160405280600581526020017f576974747900000000000000000000000000000000000000000000000000000081525081526020016040518060400160405280600481526020017f437574650000000000000000000000000000000000000000000000000000000081525081526020016040518060400160405280600581526020017f53696c6c7900000000000000000000000000000000000000000000000000000081525081526020016040518060400160405280600981526020017f48696c6172696f7573000000000000000000000000000000000000000000000081525081526020016040518060400160405280600481526020017f536578790000000000000000000000000000000000000000000000000000000081525081526020016040518060400160405280600381526020017f486f74000000000000000000000000000000000000000000000000000000000081525081526020016040518060400160405280600881526020017f466561726c65737300000000000000000000000000000000000000000000000081525081526020016040518060400160405280600581526020017f486170707900000000000000000000000000000000000000000000000000000081525081526020016040518060400160405280600681526020017f466965726365000000000000000000000000000000000000000000000000000081525081526020016040518060400160405280600581526020017f4d6573737900000000000000000000000000000000000000000000000000000081525081526020016040518060400160405280600a81526020017f4172746963756c6174650000000000000000000000000000000000000000000081525081526020016040518060400160405280600681526020017f53706f727479000000000000000000000000000000000000000000000000000081525081526020016040518060400160405280600881526020017f46616d697368656400000000000000000000000000000000000000000000000081525081526020016040518060400160405280600a81526020017f54686f7567687466756c0000000000000000000000000000000000000000000081525081526020016040518060400160405280600581526020017f526f75676500000000000000000000000000000000000000000000000000000081525081526020016040518060400160405280600781526020017f4a6f63756c61720000000000000000000000000000000000000000000000000081525081526020016040518060400160405280600881526020017f446973637265657400000000000000000000000000000000000000000000000081525081526020016040518060400160405280600681526020017f446563656e74000000000000000000000000000000000000000000000000000081525081526020016040518060400160405280600581526020017f536c65656b00000000000000000000000000000000000000000000000000000081525081526020016040518060400160405280600781526020017f44796e616d696300000000000000000000000000000000000000000000000000815250815250600a9060216200082092919062001b30565b506040518061042001604052806040518060400160405280600681526020017f446f63746f72000000000000000000000000000000000000000000000000000081525081526020016040518060400160405280600781526020017f4361707461696e0000000000000000000000000000000000000000000000000081525081526020016040518060400160405280600681526020017f5361696c6f72000000000000000000000000000000000000000000000000000081525081526020016040518060400160405280600981526020017f446574656374697665000000000000000000000000000000000000000000000081525081526020016040518060400160405280600481526020017f4b696e670000000000000000000000000000000000000000000000000000000081525081526020016040518060400160405280600581526020017f50696c6f7400000000000000000000000000000000000000000000000000000081525081526020016040518060400160405280600681526020017f436f77626f79000000000000000000000000000000000000000000000000000081525081526020016040518060400160405280600681526020017f53656e696f72000000000000000000000000000000000000000000000000000081525081526020016040518060400160405280600581526020017f4d616a6f7200000000000000000000000000000000000000000000000000000081525081526020016040518060400160405280600481526020017f426f73730000000000000000000000000000000000000000000000000000000081525081526020016040518060400160405280600781526020017f47656e6572616c0000000000000000000000000000000000000000000000000081525081526020016040518060400160405280600481526020017f436865660000000000000000000000000000000000000000000000000000000081525081526020016040518060400160405280600881526020017f436f72706f72616c00000000000000000000000000000000000000000000000081525081526020016040518060400160405280600581526020017f4167656e7400000000000000000000000000000000000000000000000000000081525081526020016040518060400160405280600a81526020017f496e7374727563746f720000000000000000000000000000000000000000000081525081526020016040518060400160405280600981526020017f446576656c6f706572000000000000000000000000000000000000000000000081525081526020016040518060400160405280600881526020017f50726f647563657200000000000000000000000000000000000000000000000081525081526020016040518060400160405280600781526020017f4d616e616765720000000000000000000000000000000000000000000000000081525081526020016040518060400160405280600781526020017f416e616c7973740000000000000000000000000000000000000000000000000081525081526020016040518060400160405280600481526020017f486f73740000000000000000000000000000000000000000000000000000000081525081526020016040518060400160405280600681526020017f42616e6b6572000000000000000000000000000000000000000000000000000081525081526020016040518060400160405280600681526020017f53696e676572000000000000000000000000000000000000000000000000000081525081526020016040518060400160405280600a81526020017f4c69657574656e616e740000000000000000000000000000000000000000000081525081526020016040518060400160405280600581526020017f4163746f7200000000000000000000000000000000000000000000000000000081525081526020016040518060400160405280600881526020017f537472616e67657200000000000000000000000000000000000000000000000081525081526020016040518060400160405280600681526020017f577269746572000000000000000000000000000000000000000000000000000081525081526020016040518060400160405280600981526020017f417263686974656374000000000000000000000000000000000000000000000081525081526020016040518060400160405280600681526020017f4a756e696f72000000000000000000000000000000000000000000000000000081525081526020016040518060400160405280600781526020017f4f6666696365720000000000000000000000000000000000000000000000000081525081526020016040518060400160405280600681526020017f507269657374000000000000000000000000000000000000000000000000000081525081526020016040518060400160405280600881526020017f47617264656e657200000000000000000000000000000000000000000000000081525081526020016040518060400160405280600681526020017f53696e676572000000000000000000000000000000000000000000000000000081525081526020016040518060400160405280600a81526020017f436f6e74726163746f7200000000000000000000000000000000000000000000815250815250600b90602162000fd892919062001b30565b506040518061040001604052806040518060400160405280600481526020017f4d61736b0000000000000000000000000000000000000000000000000000000081525081526020016040518060400160405280600781526020017f4e7574656c6c610000000000000000000000000000000000000000000000000081525081526020016040518060400160405280600381526020017f486174000000000000000000000000000000000000000000000000000000000081525081526020016040518060400160405280600481526020017f50696e650000000000000000000000000000000000000000000000000000000081525081526020016040518060400160405280600581526020017f43616e647900000000000000000000000000000000000000000000000000000081525081526020016040518060400160405280600481526020017f546f66750000000000000000000000000000000000000000000000000000000081525081526020016040518060400160405280600481526020017f426561720000000000000000000000000000000000000000000000000000000081525081526020016040518060400160405280600481526020017f4c616d700000000000000000000000000000000000000000000000000000000081525081526020016040518060400160405280600981526020017f43686f636f6c617465000000000000000000000000000000000000000000000081525081526020016040518060400160405280600481526020017f52696e670000000000000000000000000000000000000000000000000000000081525081526020016040518060400160405280600681526020017f427572676572000000000000000000000000000000000000000000000000000081525081526020016040518060400160405280600881526020017f4c6f6c6c69706f7000000000000000000000000000000000000000000000000081525081526020016040518060400160405280600381526020017f50696e000000000000000000000000000000000000000000000000000000000081525081526020016040518060400160405280600581526020017f4d6f75736500000000000000000000000000000000000000000000000000000081525081526020016040518060400160405280600381526020017f426174000000000000000000000000000000000000000000000000000000000081525081526020016040518060400160405280600581526020017f536372657700000000000000000000000000000000000000000000000000000081525081526020016040518060400160405280600481526020017f476174650000000000000000000000000000000000000000000000000000000081525081526020016040518060400160405280600481526020017f536565640000000000000000000000000000000000000000000000000000000081525081526020016040518060400160405280600481526020017f4c6f636b0000000000000000000000000000000000000000000000000000000081525081526020016040518060400160405280600481526020017f4c616e640000000000000000000000000000000000000000000000000000000081525081526020016040518060400160405280600381526020017f4b6579000000000000000000000000000000000000000000000000000000000081525081526020016040518060400160405280600481526020017f526f636b0000000000000000000000000000000000000000000000000000000081525081526020016040518060400160405280600581526020017f506170657200000000000000000000000000000000000000000000000000000081525081526020016040518060400160405280600881526020017f53636973736f727300000000000000000000000000000000000000000000000081525081526020016040518060400160405280600881526020017f536c69707065727300000000000000000000000000000000000000000000000081525081526020016040518060400160405280600581526020017f50616e747300000000000000000000000000000000000000000000000000000081525081526020016040518060400160405280600481526020017f54616e6b0000000000000000000000000000000000000000000000000000000081525081526020016040518060400160405280600481526020017f4e656f6e0000000000000000000000000000000000000000000000000000000081525081526020016040518060400160405280600481526020017f4d6f6f6e0000000000000000000000000000000000000000000000000000000081525081526020016040518060400160405280600581526020017f456172746800000000000000000000000000000000000000000000000000000081525081526020016040518060400160405280600681526020017f537769746368000000000000000000000000000000000000000000000000000081525081526020016040518060400160405280600681526020017f4261736b65740000000000000000000000000000000000000000000000000000815250815250600c9060206200175592919062001b97565b506040518060c001604052806040518060400160405280600381526020017f726564000000000000000000000000000000000000000000000000000000000081525081526020016040518060400160405280600781526020017f233038433241380000000000000000000000000000000000000000000000000081525081526020016040518060400160405280600581526020017f626c61636b00000000000000000000000000000000000000000000000000000081525081526020016040518060400160405280600681526020017f79656c6c6f77000000000000000000000000000000000000000000000000000081525081526020016040518060400160405280600481526020017f626c75650000000000000000000000000000000000000000000000000000000081525081526020016040518060400160405280600581526020017f677265656e000000000000000000000000000000000000000000000000000000815250815250600d906006620018d392919062001bfe565b50348015620018e157600080fd5b506040518060400160405280600981526020017f48756e7433724e465400000000000000000000000000000000000000000000008152506040518060400160405280600781526020017f48756e743365720000000000000000000000000000000000000000000000000081525081600090805190602001906200196692919062001a9f565b5080600190805190602001906200197f92919062001a9f565b505050620019cd6040518060400160405280600581526020017f5741474d49000000000000000000000000000000000000000000000000000000815250620019d360201b620012881760201c565b62001e1f565b62001a7381604051602401620019ea919062001d33565b6040516020818303038152906040527f41304fac000000000000000000000000000000000000000000000000000000007bffffffffffffffffffffffffffffffffffffffffffffffffffffffff19166020820180517bffffffffffffffffffffffffffffffffffffffffffffffffffffffff838183161783525050505062001a7660201b60201c565b50565b60008151905060006a636f6e736f6c652e6c6f679050602083016000808483855afa5050505050565b82805462001aad9062001da9565b90600052602060002090601f01602090048101928262001ad1576000855562001b1d565b82601f1062001aec57805160ff191683800117855562001b1d565b8280016001018555821562001b1d579182015b8281111562001b1c57825182559160200191906001019062001aff565b5b50905062001b2c919062001c65565b5090565b82805482825590600052602060002090810192821562001b84579160200282015b8281111562001b8357825182908051906020019062001b7292919062001a9f565b509160200191906001019062001b51565b5b50905062001b93919062001c84565b5090565b82805482825590600052602060002090810192821562001beb579160200282015b8281111562001bea57825182908051906020019062001bd992919062001a9f565b509160200191906001019062001bb8565b5b50905062001bfa919062001c84565b5090565b82805482825590600052602060002090810192821562001c52579160200282015b8281111562001c5157825182908051906020019062001c4092919062001a9f565b509160200191906001019062001c1f565b5b50905062001c61919062001c84565b5090565b5b8082111562001c8057600081600090555060010162001c66565b5090565b5b8082111562001ca8576000818162001c9e919062001cac565b5060010162001c85565b5090565b50805462001cba9062001da9565b6000825580601f1062001cce575062001cef565b601f01602090049060005260206000209081019062001cee919062001c65565b5b50565b600062001cff8262001d57565b62001d0b818562001d62565b935062001d1d81856020860162001d73565b62001d288162001e0e565b840191505092915050565b6000602082019050818103600083015262001d4f818462001cf2565b905092915050565b600081519050919050565b600082825260208201905092915050565b60005b8381101562001d9357808201518184015260208101905062001d76565b8381111562001da3576000848401525b50505050565b6000600282049050600182168062001dc257607f821691505b6020821081141562001dd95762001dd862001ddf565b5b50919050565b7f4e487b7100000000000000000000000000000000000000000000000000000000600052602260045260246000fd5b6000601f19601f8301169050919050565b613be28062001e2f6000396000f3fe608060405234801561001057600080fd5b50600436106101165760003560e01c806370a08231116100a2578063b88d4fde11610071578063b88d4fde14610317578063c575757a14610333578063c87b56dd14610363578063de9d132f14610393578063e985e9c51461039d57610116565b806370a082311461027d57806395d89b41146102ad578063a22cb465146102cb578063b187301f146102e757610116565b806323b872dd116100e957806323b872dd146101b55780632de38d68146101d157806342842e0e14610201578063514dc8c61461021d5780636352211e1461024d57610116565b806301ffc9a71461011b57806306fdde031461014b578063081812fc14610169578063095ea7b314610199575b600080fd5b61013560048036038101906101309190612724565b6103cd565b6040516101429190613424565b60405180910390f35b6101536104af565b604051610160919061343f565b60405180910390f35b610183600480360381019061017e9190612776565b610541565b6040516101909190613394565b60405180910390f35b6101b360048036038101906101ae91906126e8565b6105c6565b005b6101cf60048036038101906101ca91906125e2565b6106de565b005b6101eb60048036038101906101e69190612776565b61073e565b6040516101f8919061343f565b60405180910390f35b61021b600480360381019061021691906125e2565b61085c565b005b61023760048036038101906102329190612776565b61087c565b604051610244919061343f565b60405180910390f35b61026760048036038101906102629190612776565b61099a565b6040516102749190613394565b60405180910390f35b6102976004803603810190610292919061257d565b610a4c565b6040516102a491906136d6565b60405180910390f35b6102b5610b04565b6040516102c2919061343f565b60405180910390f35b6102e560048036038101906102e091906126ac565b610b96565b005b61030160048036038101906102fc9190612776565b610bac565b60405161030e919061343f565b60405180910390f35b610331600480360381019061032c9190612631565b610cca565b005b61034d60048036038101906103489190612776565b610d2c565b60405161035a919061343f565b60405180910390f35b61037d60048036038101906103789190612776565b610e4a565b60405161038a919061343f565b60405180910390f35b61039b610f9c565b005b6103b760048036038101906103b291906125a6565b6111f4565b6040516103c49190613424565b60405180910390f35b60007f80ac58cd000000000000000000000000000000000000000000000000000000007bffffffffffffffffffffffffffffffffffffffffffffffffffffffff1916827bffffffffffffffffffffffffffffffffffffffffffffffffffffffff1916148061049857507f5b5e139f000000000000000000000000000000000000000000000000000000007bffffffffffffffffffffffffffffffffffffffffffffffffffffffff1916827bffffffffffffffffffffffffffffffffffffffffffffffffffffffff1916145b806104a857506104a782611321565b5b9050919050565b6060600080546104be90613975565b80601f01602080910402602001604051908101604052809291908181526020018280546104ea90613975565b80156105375780601f1061050c57610100808354040283529160200191610537565b820191906000526020600020905b81548152906001019060200180831161051a57829003601f168201915b5050505050905090565b600061054c8261138b565b61058b576040517f08c379a000000000000000000000000000000000000000000000000000000000815260040161058290613636565b60405180910390fd5b6004600083815260200190815260200160002060009054906101000a900473ffffffffffffffffffffffffffffffffffffffff169050919050565b60006105d18261099a565b90508073ffffffffffffffffffffffffffffffffffffffff168373ffffffffffffffffffffffffffffffffffffffff161415610642576040517f08c379a000000000000000000000000000000000000000000000000000000000815260040161063990613696565b60405180910390fd5b8073ffffffffffffffffffffffffffffffffffffffff166106616113f7565b73ffffffffffffffffffffffffffffffffffffffff161480610690575061068f8161068a6113f7565b6111f4565b5b6106cf576040517f08c379a00000000000000000000000000000000000000000000000000000000081526004016106c690613576565b60405180910390fd5b6106d983836113ff565b505050565b6106ef6106e96113f7565b826114b8565b61072e576040517f08c379a0000000000000000000000000000000000000000000000000000000008152600401610725906136b6565b60405180910390fd5b610739838383611596565b505050565b6060600061077261074e846117f2565b60405160200161075e919061332e565b60405160208183030381529060405261199f565b9050600a805490508161078591906139f0565b9050600a81815481106107c1577f4e487b7100000000000000000000000000000000000000000000000000000000600052603260045260246000fd5b9060005260206000200180546107d690613975565b80601f016020809104026020016040519081016040528092919081815260200182805461080290613975565b801561084f5780601f106108245761010080835404028352916020019161084f565b820191906000526020600020905b81548152906001019060200180831161083257829003601f168201915b5050505050915050919050565b61087783838360405180602001604052806000815250610cca565b505050565b606060006108b061088c846117f2565b60405160200161089c9190613372565b60405160208183030381529060405261199f565b9050600d80549050816108c391906139f0565b9050600d81815481106108ff577f4e487b7100000000000000000000000000000000000000000000000000000000600052603260045260246000fd5b90600052602060002001805461091490613975565b80601f016020809104026020016040519081016040528092919081815260200182805461094090613975565b801561098d5780601f106109625761010080835404028352916020019161098d565b820191906000526020600020905b81548152906001019060200180831161097057829003601f168201915b5050505050915050919050565b6000806002600084815260200190815260200160002060009054906101000a900473ffffffffffffffffffffffffffffffffffffffff169050600073ffffffffffffffffffffffffffffffffffffffff168173ffffffffffffffffffffffffffffffffffffffff161415610a43576040517f08c379a0000000000000000000000000000000000000000000000000000000008152600401610a3a906135b6565b60405180910390fd5b80915050919050565b60008073ffffffffffffffffffffffffffffffffffffffff168273ffffffffffffffffffffffffffffffffffffffff161415610abd576040517f08c379a0000000000000000000000000000000000000000000000000000000008152600401610ab490613596565b60405180910390fd5b600360008373ffffffffffffffffffffffffffffffffffffffff1673ffffffffffffffffffffffffffffffffffffffff168152602001908152602001600020549050919050565b606060018054610b1390613975565b80601f0160208091040260200160405190810160405280929190818152602001828054610b3f90613975565b8015610b8c5780601f10610b6157610100808354040283529160200191610b8c565b820191906000526020600020905b815481529060010190602001808311610b6f57829003601f168201915b5050505050905090565b610ba8610ba16113f7565b83836119d2565b5050565b60606000610be0610bbc846117f2565b604051602001610bcc91906132c7565b60405160208183030381529060405261199f565b9050600b8054905081610bf391906139f0565b9050600b8181548110610c2f577f4e487b7100000000000000000000000000000000000000000000000000000000600052603260045260246000fd5b906000526020600020018054610c4490613975565b80601f0160208091040260200160405190810160405280929190818152602001828054610c7090613975565b8015610cbd5780601f10610c9257610100808354040283529160200191610cbd565b820191906000526020600020905b815481529060010190602001808311610ca057829003601f168201915b5050505050915050919050565b610cdb610cd56113f7565b836114b8565b610d1a576040517f08c379a0000000000000000000000000000000000000000000000000000000008152600401610d11906136b6565b60405180910390fd5b610d2684848484611b3f565b50505050565b60606000610d60610d3c846117f2565b604051602001610d4c91906132a5565b60405160208183030381529060405261199f565b9050600c8054905081610d7391906139f0565b9050600c8181548110610daf577f4e487b7100000000000000000000000000000000000000000000000000000000600052603260045260246000fd5b906000526020600020018054610dc490613975565b80601f0160208091040260200160405190810160405280929190818152602001828054610df090613975565b8015610e3d5780601f10610e1257610100808354040283529160200191610e3d565b820191906000526020600020905b815481529060010190602001808311610e2057829003601f168201915b5050505050915050919050565b6060610e558261138b565b610e94576040517f08c379a0000000000000000000000000000000000000000000000000000000008152600401610e8b90613616565b60405180910390fd5b6000600660008481526020019081526020016000208054610eb490613975565b80601f0160208091040260200160405190810160405280929190818152602001828054610ee090613975565b8015610f2d5780601f10610f0257610100808354040283529160200191610f2d565b820191906000526020600020905b815481529060010190602001808311610f1057829003601f168201915b505050505090506000610f3e611b9b565b9050600081511415610f54578192505050610f97565b600082511115610f89578082604051602001610f719291906131e5565b60405160208183030381529060405292505050610f97565b610f9284611bb2565b925050505b919050565b6000610fa86007611c59565b90506000610fb58261073e565b90506000610fc283610bac565b90506000610fcf84610d2c565b90506000838383604051602001610fe893929190613209565b604051602081830303815290604052905060006110048661087c565b90506000600882600985604051602001611021949392919061323a565b60405160208183030381529060405290506110716040518060400160405280600581526020017f5356472d3e00000000000000000000000000000000000000000000000000000081525082611c67565b60006110a58461108084611d03565b6040516020016110919291906132e9565b604051602081830303815290604052611d03565b90506000816040516020016110ba9190613350565b60405160208183030381529060405290506111096040518060400160405280601381526020017f0a2d2d2d2d2d2d2d2d2d2d2d2d2d2d2d2d2d2d00000000000000000000000000815250611288565b6111318160405160200161111d9190613283565b604051602081830303815290604052611288565b61116f6040518060400160405280601381526020017f2d2d2d2d2d2d2d2d2d2d2d2d2d2d2d2d2d2d0a00000000000000000000000000815250611288565b611179338a611ec1565b6111838982611edf565b61118d6007611f53565b6111b0604051806060016040528060228152602001613b8b602291398a33611f69565b7febb98688741ffa4c7589bf325de30cf7becb63de567842e1ccdb6cb949fdc82c338a6040516111e19291906133fb565b60405180910390a1505050505050505050565b6000600560008473ffffffffffffffffffffffffffffffffffffffff1673ffffffffffffffffffffffffffffffffffffffff16815260200190815260200160002060008373ffffffffffffffffffffffffffffffffffffffff1673ffffffffffffffffffffffffffffffffffffffff16815260200190815260200160002060009054906101000a900460ff16905092915050565b61131e8160405160240161129c919061343f565b6040516020818303038152906040527f41304fac000000000000000000000000000000000000000000000000000000007bffffffffffffffffffffffffffffffffffffffffffffffffffffffff19166020820180517bffffffffffffffffffffffffffffffffffffffffffffffffffffffff8381831617835250505050612008565b50565b60007f01ffc9a7000000000000000000000000000000000000000000000000000000007bffffffffffffffffffffffffffffffffffffffffffffffffffffffff1916827bffffffffffffffffffffffffffffffffffffffffffffffffffffffff1916149050919050565b60008073ffffffffffffffffffffffffffffffffffffffff166002600084815260200190815260200160002060009054906101000a900473ffffffffffffffffffffffffffffffffffffffff1673ffffffffffffffffffffffffffffffffffffffff1614159050919050565b600033905090565b816004600083815260200190815260200160002060006101000a81548173ffffffffffffffffffffffffffffffffffffffff021916908373ffffffffffffffffffffffffffffffffffffffff160217905550808273ffffffffffffffffffffffffffffffffffffffff166114728361099a565b73ffffffffffffffffffffffffffffffffffffffff167f8c5be1e5ebec7d5bd14f71427d1e84f3dd0314c0f7b2291e5b200ac8c7c3b92560405160405180910390a45050565b60006114c38261138b565b611502576040517f08c379a00000000000000000000000000000000000000000000000000000000081526004016114f990613556565b60405180910390fd5b600061150d8361099a565b90508073ffffffffffffffffffffffffffffffffffffffff168473ffffffffffffffffffffffffffffffffffffffff16148061157c57508373ffffffffffffffffffffffffffffffffffffffff1661156484610541565b73ffffffffffffffffffffffffffffffffffffffff16145b8061158d575061158c81856111f4565b5b91505092915050565b8273ffffffffffffffffffffffffffffffffffffffff166115b68261099a565b73ffffffffffffffffffffffffffffffffffffffff161461160c576040517f08c379a000000000000000000000000000000000000000000000000000000000815260040161160390613656565b60405180910390fd5b600073ffffffffffffffffffffffffffffffffffffffff168273ffffffffffffffffffffffffffffffffffffffff16141561167c576040517f08c379a000000000000000000000000000000000000000000000000000000000815260040161167390613516565b60405180910390fd5b611687838383612031565b6116926000826113ff565b6001600360008573ffffffffffffffffffffffffffffffffffffffff1673ffffffffffffffffffffffffffffffffffffffff16815260200190815260200160002060008282546116e2919061388b565b925050819055506001600360008473ffffffffffffffffffffffffffffffffffffffff1673ffffffffffffffffffffffffffffffffffffffff168152602001908152602001600020600082825461173991906137aa565b92505081905550816002600083815260200190815260200160002060006101000a81548173ffffffffffffffffffffffffffffffffffffffff021916908373ffffffffffffffffffffffffffffffffffffffff160217905550808273ffffffffffffffffffffffffffffffffffffffff168473ffffffffffffffffffffffffffffffffffffffff167fddf252ad1be2c89b69c2b068fc378daa952ba7f163c4a11628f55a4df523b3ef60405160405180910390a4505050565b6060600082141561183a576040518060400160405280600181526020017f3000000000000000000000000000000000000000000000000000000000000000815250905061199a565b600082905060005b6000821461186c578080611855906139a7565b915050600a826118659190613800565b9150611842565b60008167ffffffffffffffff8111156118ae577f4e487b7100000000000000000000000000000000000000000000000000000000600052604160045260246000fd5b6040519080825280601f01601f1916602001820160405280156118e05781602001600182028036833780820191505090505b5090505b60008514611993576001826118f9919061388b565b9150600a8561190891906139f0565b603061191491906137aa565b60f81b818381518110611950577f4e487b7100000000000000000000000000000000000000000000000000000000600052603260045260246000fd5b60200101907effffffffffffffffffffffffffffffffffffffffffffffffffffffffffffff1916908160001a905350600a8561198c9190613800565b94506118e4565b8093505050505b919050565b6000816040516020016119b291906131ce565b6040516020818303038152906040528051906020012060001c9050919050565b8173ffffffffffffffffffffffffffffffffffffffff168373ffffffffffffffffffffffffffffffffffffffff161415611a41576040517f08c379a0000000000000000000000000000000000000000000000000000000008152600401611a3890613536565b60405180910390fd5b80600560008573ffffffffffffffffffffffffffffffffffffffff1673ffffffffffffffffffffffffffffffffffffffff16815260200190815260200160002060008473ffffffffffffffffffffffffffffffffffffffff1673ffffffffffffffffffffffffffffffffffffffff16815260200190815260200160002060006101000a81548160ff0219169083151502179055508173ffffffffffffffffffffffffffffffffffffffff168373ffffffffffffffffffffffffffffffffffffffff167f17307eab39ab6107e8899845ad3d59bd9653f200f220920489ca2b5937696c3183604051611b329190613424565b60405180910390a3505050565b611b4a848484611596565b611b5684848484612036565b611b95576040517f08c379a0000000000000000000000000000000000000000000000000000000008152600401611b8c906134d6565b60405180910390fd5b50505050565b606060405180602001604052806000815250905090565b6060611bbd8261138b565b611bfc576040517f08c379a0000000000000000000000000000000000000000000000000000000008152600401611bf390613676565b60405180910390fd5b6000611c06611b9b565b90506000815111611c265760405180602001604052806000815250611c51565b80611c30846117f2565b604051602001611c419291906131e5565b6040516020818303038152906040525b915050919050565b600081600001549050919050565b611cff8282604051602401611c7d929190613461565b6040516020818303038152906040527f4b5c4277000000000000000000000000000000000000000000000000000000007bffffffffffffffffffffffffffffffffffffffffffffffffffffffff19166020820180517bffffffffffffffffffffffffffffffffffffffffffffffffffffffff8381831617835250505050612008565b5050565b60606000825190506000811415611d2c5760405180602001604052806000815250915050611ebc565b60006003600283611d3d91906137aa565b611d479190613800565b6004611d539190613831565b90506000602082611d6491906137aa565b67ffffffffffffffff811115611da3577f4e487b7100000000000000000000000000000000000000000000000000000000600052604160045260246000fd5b6040519080825280601f01601f191660200182016040528015611dd55781602001600182028036833780820191505090505b5090506000604051806060016040528060408152602001613b4b604091399050600181016020830160005b86811015611e795760038101905062ffffff818a015116603f8160121c168401518060081b905060ff603f83600c1c1686015116810190508060081b905060ff603f8360061c1686015116810190508060081b905060ff603f831686015116810190508060e01b90508084526004840193505050611e00565b506003860660018114611e935760028114611ea357611eae565b613d3d60f01b6002830352611eae565b603d60f81b60018303525b508484525050819450505050505b919050565b611edb8282604051806020016040528060008152506121cd565b5050565b611ee88261138b565b611f27576040517f08c379a0000000000000000000000000000000000000000000000000000000008152600401611f1e906135d6565b60405180910390fd5b80600660008481526020019081526020016000209080519060200190611f4e929190612409565b505050565b6001816000016000828254019250508190555050565b612003838383604051602401611f8193929190613498565b6040516020818303038152906040527fe3849f79000000000000000000000000000000000000000000000000000000007bffffffffffffffffffffffffffffffffffffffffffffffffffffffff19166020820180517bffffffffffffffffffffffffffffffffffffffffffffffffffffffff8381831617835250505050612008565b505050565b60008151905060006a636f6e736f6c652e6c6f679050602083016000808483855afa5050505050565b505050565b60006120578473ffffffffffffffffffffffffffffffffffffffff16612228565b156121c0578373ffffffffffffffffffffffffffffffffffffffff1663150b7a026120806113f7565b8786866040518563ffffffff1660e01b81526004016120a294939291906133af565b602060405180830381600087803b1580156120bc57600080fd5b505af19250505080156120ed57506040513d601f19601f820116820180604052508101906120ea919061274d565b60015b612170573d806000811461211d576040519150601f19603f3d011682016040523d82523d6000602084013e612122565b606091505b50600081511415612168576040517f08c379a000000000000000000000000000000000000000000000000000000000815260040161215f906134d6565b60405180910390fd5b805181602001fd5b63150b7a0260e01b7bffffffffffffffffffffffffffffffffffffffffffffffffffffffff1916817bffffffffffffffffffffffffffffffffffffffffffffffffffffffff1916149150506121c5565b600190505b949350505050565b6121d7838361223b565b6121e46000848484612036565b612223576040517f08c379a000000000000000000000000000000000000000000000000000000000815260040161221a906134d6565b60405180910390fd5b505050565b600080823b905060008111915050919050565b600073ffffffffffffffffffffffffffffffffffffffff168273ffffffffffffffffffffffffffffffffffffffff1614156122ab576040517f08c379a00000000000000000000000000000000000000000000000000000000081526004016122a2906135f6565b60405180910390fd5b6122b48161138b565b156122f4576040517f08c379a00000000000000000000000000000000000000000000000000000000081526004016122eb906134f6565b60405180910390fd5b61230060008383612031565b6001600360008473ffffffffffffffffffffffffffffffffffffffff1673ffffffffffffffffffffffffffffffffffffffff168152602001908152602001600020600082825461235091906137aa565b92505081905550816002600083815260200190815260200160002060006101000a81548173ffffffffffffffffffffffffffffffffffffffff021916908373ffffffffffffffffffffffffffffffffffffffff160217905550808273ffffffffffffffffffffffffffffffffffffffff16600073ffffffffffffffffffffffffffffffffffffffff167fddf252ad1be2c89b69c2b068fc378daa952ba7f163c4a11628f55a4df523b3ef60405160405180910390a45050565b82805461241590613975565b90600052602060002090601f016020900481019282612437576000855561247e565b82601f1061245057805160ff191683800117855561247e565b8280016001018555821561247e579182015b8281111561247d578251825591602001919060010190612462565b5b50905061248b919061248f565b5090565b5b808211156124a8576000816000905550600101612490565b5090565b60006124bf6124ba84613722565b6136f1565b9050828152602081018484840111156124d757600080fd5b6124e2848285613933565b509392505050565b6000813590506124f981613aee565b92915050565b60008135905061250e81613b05565b92915050565b60008135905061252381613b1c565b92915050565b60008151905061253881613b1c565b92915050565b600082601f83011261254f57600080fd5b813561255f8482602086016124ac565b91505092915050565b60008135905061257781613b33565b92915050565b60006020828403121561258f57600080fd5b600061259d848285016124ea565b91505092915050565b600080604083850312156125b957600080fd5b60006125c7858286016124ea565b92505060206125d8858286016124ea565b9150509250929050565b6000806000606084860312156125f757600080fd5b6000612605868287016124ea565b9350506020612616868287016124ea565b925050604061262786828701612568565b9150509250925092565b6000806000806080858703121561264757600080fd5b6000612655878288016124ea565b9450506020612666878288016124ea565b935050604061267787828801612568565b925050606085013567ffffffffffffffff81111561269457600080fd5b6126a08782880161253e565b91505092959194509250565b600080604083850312156126bf57600080fd5b60006126cd858286016124ea565b92505060206126de858286016124ff565b9150509250929050565b600080604083850312156126fb57600080fd5b6000612709858286016124ea565b925050602061271a85828601612568565b9150509250929050565b60006020828403121561273657600080fd5b600061274484828501612514565b91505092915050565b60006020828403121561275f57600080fd5b600061276d84828501612529565b91505092915050565b60006020828403121561278857600080fd5b600061279684828501612568565b91505092915050565b6127a8816138bf565b82525050565b6127b7816138d1565b82525050565b60006127c882613767565b6127d2818561377d565b93506127e2818560208601613942565b6127eb81613add565b840191505092915050565b600061280182613772565b61280b818561378e565b935061281b818560208601613942565b61282481613add565b840191505092915050565b600061283a82613772565b612844818561379f565b9350612854818560208601613942565b80840191505092915050565b6000815461286d81613975565b612877818661379f565b9450600182166000811461289257600181146128a3576128d6565b60ff198316865281860193506128d6565b6128ac85613752565b60005b838110156128ce578154818901526001820191506020810190506128af565b838801955050505b50505092915050565b60006128ec60258361379f565b91507f68747470733a2f2f6e6674707265766965772e30786465762e636f6465732f3f60008301527f636f64653d0000000000000000000000000000000000000000000000000000006020830152602582019050919050565b600061295260328361378e565b91507f4552433732313a207472616e7366657220746f206e6f6e20455243373231526560008301527f63656976657220696d706c656d656e74657200000000000000000000000000006020830152604082019050919050565b60006129b8601c8361378e565b91507f4552433732313a20746f6b656e20616c7265616479206d696e746564000000006000830152602082019050919050565b60006129f8600a8361379f565b91507f54484952445f574f5244000000000000000000000000000000000000000000006000830152600a82019050919050565b6000612a3860248361378e565b91507f4552433732313a207472616e7366657220746f20746865207a65726f2061646460008301527f72657373000000000000000000000000000000000000000000000000000000006020830152604082019050919050565b6000612a9e60198361378e565b91507f4552433732313a20617070726f766520746f2063616c6c6572000000000000006000830152602082019050919050565b6000612ade600b8361379f565b91507f5345434f4e445f574f52440000000000000000000000000000000000000000006000830152600b82019050919050565b6000612b1e602c8361378e565b91507f4552433732313a206f70657261746f7220717565727920666f72206e6f6e657860008301527f697374656e7420746f6b656e00000000000000000000000000000000000000006020830152604082019050919050565b6000612b84600d8361379f565b91507f3c2f746578743e3c2f7376673e000000000000000000000000000000000000006000830152600d82019050919050565b6000612bc460388361378e565b91507f4552433732313a20617070726f76652063616c6c6572206973206e6f74206f7760008301527f6e6572206e6f7220617070726f76656420666f7220616c6c00000000000000006020830152604082019050919050565b6000612c2a602a8361378e565b91507f4552433732313a2062616c616e636520717565727920666f7220746865207a6560008301527f726f2061646472657373000000000000000000000000000000000000000000006020830152604082019050919050565b6000612c9060298361378e565b91507f4552433732313a206f776e657220717565727920666f72206e6f6e657869737460008301527f656e7420746f6b656e00000000000000000000000000000000000000000000006020830152604082019050919050565b6000612cf6602e8361378e565b91507f45524337323155524953746f726167653a2055524920736574206f66206e6f6e60008301527f6578697374656e7420746f6b656e0000000000000000000000000000000000006020830152604082019050919050565b6000612d5c60028361379f565b91507f227d0000000000000000000000000000000000000000000000000000000000006000830152600282019050919050565b6000612d9c60208361378e565b91507f4552433732313a206d696e7420746f20746865207a65726f20616464726573736000830152602082019050919050565b6000612ddc60318361378e565b91507f45524337323155524953746f726167653a2055524920717565727920666f722060008301527f6e6f6e6578697374656e7420746f6b656e0000000000000000000000000000006020830152604082019050919050565b6000612e42602c8361378e565b91507f4552433732313a20617070726f76656420717565727920666f72206e6f6e657860008301527f697374656e7420746f6b656e00000000000000000000000000000000000000006020830152604082019050919050565b6000612ea860298361378e565b91507f4552433732313a207472616e73666572206f6620746f6b656e2074686174206960008301527f73206e6f74206f776e00000000000000000000000000000000000000000000006020830152604082019050919050565b6000612f0e602f8361378e565b91507f4552433732314d657461646174613a2055524920717565727920666f72206e6f60008301527f6e6578697374656e7420746f6b656e00000000000000000000000000000000006020830152604082019050919050565b6000612f74600a8361379f565b91507f7b226e616d65223a2022000000000000000000000000000000000000000000006000830152600a82019050919050565b6000612fb460218361378e565b91507f4552433732313a20617070726f76616c20746f2063757272656e74206f776e6560008301527f72000000000000000000000000000000000000000000000000000000000000006020830152604082019050919050565b600061301a600a8361379f565b91507f46495253545f574f5244000000000000000000000000000000000000000000006000830152600a82019050919050565b600061305a601d8361379f565b91507f646174613a6170706c69636174696f6e2f6a736f6e3b6261736536342c0000006000830152601d82019050919050565b600061309a60318361378e565b91507f4552433732313a207472616e736665722063616c6c6572206973206e6f74206f60008301527f776e6572206e6f7220617070726f7665640000000000000000000000000000006020830152604082019050919050565b600061310060598361379f565b91507f222c226465736372697074696f6e223a22537570657220637275697365206c6560008301527f76656c207469746c657320666f7220796f752e222c2022696d616765223a226460208301527f6174613a696d6167652f7376672b786d6c3b6261736536342c000000000000006040830152605982019050919050565b600061318c60058361379f565b91507f434f4c4f520000000000000000000000000000000000000000000000000000006000830152600582019050919050565b6131c881613929565b82525050565b60006131da828461282f565b915081905092915050565b60006131f1828561282f565b91506131fd828461282f565b91508190509392505050565b6000613215828661282f565b9150613221828561282f565b915061322d828461282f565b9150819050949350505050565b60006132468287612860565b9150613252828661282f565b915061325e8285612860565b915061326a828461282f565b915061327582612b77565b915081905095945050505050565b600061328e826128df565b915061329a828461282f565b915081905092915050565b60006132b0826129eb565b91506132bc828461282f565b915081905092915050565b60006132d282612ad1565b91506132de828461282f565b915081905092915050565b60006132f482612f67565b9150613300828561282f565b915061330b826130f3565b9150613317828461282f565b915061332282612d4f565b91508190509392505050565b60006133398261300d565b9150613345828461282f565b915081905092915050565b600061335b8261304d565b9150613367828461282f565b915081905092915050565b600061337d8261317f565b9150613389828461282f565b915081905092915050565b60006020820190506133a9600083018461279f565b92915050565b60006080820190506133c4600083018761279f565b6133d1602083018661279f565b6133de60408301856131bf565b81810360608301526133f081846127bd565b905095945050505050565b6000604082019050613410600083018561279f565b61341d60208301846131bf565b9392505050565b600060208201905061343960008301846127ae565b92915050565b6000602082019050818103600083015261345981846127f6565b905092915050565b6000604082019050818103600083015261347b81856127f6565b9050818103602083015261348f81846127f6565b90509392505050565b600060608201905081810360008301526134b281866127f6565b90506134c160208301856131bf565b6134ce604083018461279f565b949350505050565b600060208201905081810360008301526134ef81612945565b9050919050565b6000602082019050818103600083015261350f816129ab565b9050919050565b6000602082019050818103600083015261352f81612a2b565b9050919050565b6000602082019050818103600083015261354f81612a91565b9050919050565b6000602082019050818103600083015261356f81612b11565b9050919050565b6000602082019050818103600083015261358f81612bb7565b9050919050565b600060208201905081810360008301526135af81612c1d565b9050919050565b600060208201905081810360008301526135cf81612c83565b9050919050565b600060208201905081810360008301526135ef81612ce9565b9050919050565b6000602082019050818103600083015261360f81612d8f565b9050919050565b6000602082019050818103600083015261362f81612dcf565b9050919050565b6000602082019050818103600083015261364f81612e35565b9050919050565b6000602082019050818103600083015261366f81612e9b565b9050919050565b6000602082019050818103600083015261368f81612f01565b9050919050565b600060208201905081810360008301526136af81612fa7565b9050919050565b600060208201905081810360008301526136cf8161308d565b9050919050565b60006020820190506136eb60008301846131bf565b92915050565b6000604051905081810181811067ffffffffffffffff8211171561371857613717613aae565b5b8060405250919050565b600067ffffffffffffffff82111561373d5761373c613aae565b5b601f19601f8301169050602081019050919050565b60008190508160005260206000209050919050565b600081519050919050565b600081519050919050565b600082825260208201905092915050565b600082825260208201905092915050565b600081905092915050565b60006137b582613929565b91506137c083613929565b9250827fffffffffffffffffffffffffffffffffffffffffffffffffffffffffffffffff038211156137f5576137f4613a21565b5b828201905092915050565b600061380b82613929565b915061381683613929565b92508261382657613825613a50565b5b828204905092915050565b600061383c82613929565b915061384783613929565b9250817fffffffffffffffffffffffffffffffffffffffffffffffffffffffffffffffff04831182151516156138805761387f613a21565b5b828202905092915050565b600061389682613929565b91506138a183613929565b9250828210156138b4576138b3613a21565b5b828203905092915050565b60006138ca82613909565b9050919050565b60008115159050919050565b60007fffffffff0000000000000000000000000000000000000000000000000000000082169050919050565b600073ffffffffffffffffffffffffffffffffffffffff82169050919050565b6000819050919050565b82818337600083830152505050565b60005b83811015613960578082015181840152602081019050613945565b8381111561396f576000848401525b50505050565b6000600282049050600182168061398d57607f821691505b602082108114156139a1576139a0613a7f565b5b50919050565b60006139b282613929565b91507fffffffffffffffffffffffffffffffffffffffffffffffffffffffffffffffff8214156139e5576139e4613a21565b5b600182019050919050565b60006139fb82613929565b9150613a0683613929565b925082613a1657613a15613a50565b5b828206905092915050565b7f4e487b7100000000000000000000000000000000000000000000000000000000600052601160045260246000fd5b7f4e487b7100000000000000000000000000000000000000000000000000000000600052601260045260246000fd5b7f4e487b7100000000000000000000000000000000000000000000000000000000600052602260045260246000fd5b7f4e487b7100000000000000000000000000000000000000000000000000000000600052604160045260246000fd5b6000601f19601f8301169050919050565b613af7816138bf565b8114613b0257600080fd5b50565b613b0e816138d1565b8114613b1957600080fd5b50565b613b25816138dd565b8114613b3057600080fd5b50565b613b3c81613929565b8114613b4757600080fd5b5056fe4142434445464748494a4b4c4d4e4f505152535455565758595a6162636465666768696a6b6c6d6e6f707172737475767778797a303132333435363738392b2f4e465420772f20494420257320686173206265656e206d696e74656420746f202573a26469706673582212204225b3fb10de92638bd7df3b038c1983be599b9dcb19af805fcddcd0bac1c44964736f6c634300080000333c73766720786d6c6e733d27687474703a2f2f7777772e77332e6f72672f323030302f73766727207072657365727665417370656374526174696f3d27784d696e594d696e206d656574272076696577426f783d273020302033353020333530273e3c7374796c653e2e62617365207b2066696c6c3a2077686974653b20666f6e742d66616d696c793a2073657269663b20666f6e742d73697a653a20323470783b207d3c2f7374796c653e3c726563742077696474683d273130302527206865696768743d2731303025272066696c6c3d27272f3e3c7465787420783d273530252720793d273530252720636c6173733d27626173652720646f6d696e616e742d626173656c696e653d276d6964646c652720746578742d616e63686f723d276d6964646c65273e",
  "linkReferences": {},
  "deployedLinkReferences": {}
}